:020000041000EA
:1080000010B5184B184A9A4203D0184B154A9A4299
:1080100004D3174B174A9A4210D31EE0164B134A4B
:108020000332D21A92080132920000230D480E4901
:10803000CC58C45004339342FAD1EAE70F4B0C49B1
:108040000331C91A8908013189000023094C002035
:108050001A19106004338B42FAD1094B9847094B27
:10806000984710BDC4380110C43801103C390110C4
:10807000486601103C390110C83801104039011020
:108080008916011079BC001010B5064C2378002B1E
:1080900007D1054B002B02D0044800E000BF0123AC
:1080A000237010BD3C39011000000000C4380110DD
:1080B000084B10B5002B03D00749084800E000BF6B
:1080C00007480368002B00D110BD064B002BFBD0E6
:1080D0009847F9E70000000040390110C43801104A
:1080E000C438011000000000012303704370FA231C
:1080F000DB0143607047C046064B00225A601A6895
:1081000003218A431A6019008022D2010B681342AE
:10811000FCD1704700D00040024B18684000C00FEF
:108120007047C04600D00040024A116810230B433C
:108130001360704700D0004010B5044B9847044BC3
:108140001B68002B00D0984710BDC0462981001045
:1081500058390110014B18607047C046583901105A
:108160000022014B1A60704758390110F0B583B0F6
:1081700000222B4B1A730378022B05D1284A117B5E
:1081800001330B43137305E0012B03D1244A117B08
:108190000B431373234B1A6853001FD0214D002744
:1081A0002C26FF368021C9012F6001970197019B82
:1081B000B34206D8C046019B01330193019BB342F1
:1081C000F8D944780B00002C03D180239B0000E0F9
:1081D0002A681342FCD12A685300E5D14378002B6A
:1081E00005D1104B42685A6001221A6004E00D4B21
:1081F00042685A6002221A604378012B09D109496A
:10820000E022D2010B6813409342FBD10022054BC0
:108210001A6005492B20054B984703B0F0BDC046B6
:1082200000E0004000D00040398100103994001077
:10823000F0B5474680B482B080231B013A4AD45C33
:1082400000260F231C400194384B98460125019AC3
:10825000002100E0190052084B1CDBB2002AF9D1C2
:1082600089004346C85803781B02314A9C58E1B242
:10827000304A9A588262FF222240154203D00026DB
:10828000252286542FE0970704D5102625228654F0
:108290002E0028E0570704D51026252286540E3ECE
:1082A00021E0170704D51026252286540D3E1AE03A
:1082B000D70604D51026252286540C3E13E09706D7
:1082C00004D51026252286540B3E0CE0520604D518
:1082D0001026252286540A3E05E0220603D51026E4
:1082E00025228654093E00290ED013492A00B240A7
:1082F0005A502423C35C33411D4205D0B300C31838
:108300005B68002B00D098472B00B3409C4363B2BE
:10831000002B9CD1802109028133FF33074AD150C1
:1083200002B004BC9046F0BD002000405C39011052
:10833000AC20004050200040A420004000E100E0BC
:1083400001220270427082700023C3700371437176
:108350008371C371037242728272C2720373437378
:108360008373C373037443748374C3747047C046C8
:1083700010B52523C35CDBB2052B42D0C26A002AAC
:1083800007D00323D4689C4323000324002B1FD170
:108390002DE0C16203781B021B4A944663440A68BD
:1083A0001A6003781B02194A944663444A681A60AB
:1083B0008A6803781B0216498C4663441A60037866
:1083C0001B02144A9446634403221A60002318E0F7
:1083D000D268D368A343FBD1D1600323CA689A4310
:1083E0000023002A0DD00333CB60002309E003787B
:1083F0001B0208488446634403200C0084431C602D
:10840000EAE7180010BDC0460020004004200040EC
:10841000082000400C20004082B002002523C35CED
:10842000D8B2052827D0D36A9B681720002B22D00A
:1084300013781B021149595801910198104958505D
:108440002423D35C0193019913781B020D488446C1
:108450006344196005212523D15413781B020A496E
:108460008C4663440121196013781B02074A944625
:1084700063441960002002B07047C046AC20004041
:10848000A4200040A820004040200040442000409C
:10849000F8B504000D00624B1B78002B12D143206D
:1084A000604B98476049CC228858604B034080203D
:1084B000400503438B505E491F205E4B98470122C5
:1084C000574B1A70564B5A68D30700D5A2E002E00A
:1084D00011420ED100E00023514A50680121994019
:1084E00001435160117A013911721420FF2B07D119
:1084F00094E052080133DBB2052BE9D114208DE062
:1085000023701B024C4A944663442A787F263240EB
:10851000A978C9070A4369780904FC20800301404F
:108520000A431A6023781B02444A944663446A7AD9
:108530003240E97AC9070A43A97A0904084010437E
:10854000186023781B023E4A94466344EA7C120773
:10855000C02189050A40A97C09040A431A602378CE
:108560001B02384A944663442F793F02E021C90038
:108570003A000A402E7B3604F8204003064032437E
:108580001700E8781F2202403E0016436A7B12065D
:10859000E020C004024032431A60207800022A4BD7
:1085A0009C466044AB79072633406E790822B2407E
:1085B0001343EE798022B2401343AE7B8022120136
:1085C000B24013432E7C80221202B24013431E009D
:1085D0002A7A120170231A4033001343EA7B1202F5
:1085E00011400B43697C0903E022D20111400B4387
:1085F0000360231D21002431002204C38B42FCD1DF
:1086000000232422A354E36223789B000F4A9C504A
:10861000002003E052080123012159E7F8BDC046BC
:10862000C4380110D18F001000B00040FFFFFFE000
:1086300031820010399400101020004014200040B6
:108640001820004020200040382800405C390110EC
:1086500010B50D4B1B7D002B07D001220A4B1A735E
:108660000A4B1B68002B00D098473423064AD35C82
:10867000002B07D001212C23D154054B1B68002B64
:1086800000D0984710BDC04600100040703901105E
:108690007439011001230370037302224270427384
:1086A000837083730022C270C2730371037482608B
:1086B000426102767047C046002807D1002902D1E6
:1086C000064B1A6009E0054B9A6106E0002902D1C9
:1086D000024B1A6201E0014B9A63704700100040A0
:1086E000002805D1064A117A80230B43137205E056
:1086F00003492822885C802303438B547047C0467B
:1087000000100040002805D1064A117A7F230B4053
:10871000137205E003492822885C7F2303408B54B1
:108720007047C0460010004070B504000420394B6B
:1087300098472378002B02D1237B002B65D0364944
:10874000CA6820231343CB60227E8B69032002403A
:1087500012012D30834313438B612378002B26D0E5
:1087600063780121002B03D0023B5D425D41A901EA
:10877000A278520002252A40E3789B000A352B405C
:108780001A4315000D432379002B01D020231D43EC
:10879000224BA2681A601D721F49C4225200885CD5
:1087A000012303438B5400201D4B984700E0002514
:1087B000237B002B29D0637B002B05D0012B05D018
:1087C000022B04D1402502E0012500E00025A37B17
:1087D0005B0002211940E27B92000C2313400B4303
:1087E0001D43237C002B01D020231D4362690B4BCA
:1087F0001A6228229D5408496132FF32885C0223A4
:1088000003438B540120064B984706491E20064B14
:10881000984770BDD18F001000B00040001000409C
:10882000E18600105186001039940010002802D112
:10883000024B196001E0024B19607047703901105A
:108840007439011000230370012242708370C370D9
:108850007047C04670B51723012800D8C8E0072824
:1088600009D8644D6A6C103B03409B0007249C4070
:10887000A2436A6429E00F2809D85E4DAA6C072339
:1088800003409B0007249C40A243AA641DE01728D4
:1088900009D8584DEA6C072303409B0007249C40ED
:1088A000A243EA6411E003002C3B032B0DD8524D88
:1088B0008224E4002A5D120701269E40120F2B5DE0
:1088C000B2430F26B34313432B5503001D3B022B2A
:1088D00029D84B78012B08D1474D2B7D1F24241A12
:1088E0000122A24093432B7508E0434C257D1F22B3
:1088F000121A012393402B43DBB22375CA7800235D
:10890000002A75D03C490C881F22101A80000133C0
:10891000834023439BB20B80384A117802230B43D8
:108920001370002364E00A78002A40D10F2808D889
:10893000012383409BB2324A938200231F2857D8D9
:1089400012E01F2807D80F220240012393409BB258
:108950002C4A938208E00F2318400E3B83409BB2C1
:10896000294A9382002343E04B78012B0CD0002B43
:1089700002D0022B10D03AE01E490A6D0123834039
:1089800013430B65002333E01A490B6D012282402B
:1089900093430B6500232BE0164B596D0122824057
:1089A00011435965196D91431965002320E0002397
:1089B000012A1DD10F2806D8013383409BB2104AEB
:1089C0001382002314E01F2808D80F2318400E3B01
:1089D00083409BB20B4A1382002309E00F23184007
:1089E0000E3B83409BB2084A1382002300E017230A
:1089F000180070BD00B0004000F0004000E00040F2
:108A000000000140001001400030014010B50F2867
:108A100010D8002907D01D4A9188012383400B43B9
:108A20009BB2938031E019498B88012282409343A5
:108A30008B802AE01F2814D8002909D014498C887B
:108A40000F2210400123834023439BB28B801CE004
:108A50000F498B880F2210400E3A824093438B803F
:108A600013E0002909D00B498C880F221040012304
:108A7000834023439BB28B8007E006498B880F22FB
:108A800010400E3A824093438B8010BD000001409D
:108A9000001001400030014070B50D0AFF2319405D
:108AA000072833D84E4A546CF83B03409B000726F6
:108AB0009E40B4435464546C0E009E4033002343E4
:108AC0005364012900D08AE003280FD81100D02276
:108AD00052008C5803231840C0003C3383409C4311
:108AE0008C508B5885401D438D5078E03C49D222F4
:108AF00052008C5803231840C0003C3383409C43F1
:108B00008C508B5885401D438D5068E00F2832D81B
:108B1000334A946C072303409B0007269E40B443CE
:108B20009464946C0E009E403300234393640129A7
:108B300055D10B280FD81100D42252008C58032392
:108B40001840C0003C3383409C438C508B58854078
:108B50001D438D5043E02249D62252008C580323F6
:108B60001840C0003C3383409C438C508B58854058
:108B70001D438D5033E0172831D8194AD46C072390
:108B800003409B0007269E40B443D464D46C0E007F
:108B90009E4033002343D364012920D113280FD8EA
:108BA0001100D82252008C5803231840C0003C33D7
:108BB00083409C438C508B5885401D438D500EE064
:108BC000074ADA235B00D15803242040C0003C341C
:108BD0008440A143D150D15885400D43D55070BD3C
:108BE00000B0004001280DD0002802D002281CD07F
:108BF0002EE0184A90690C2303439361164A174BE1
:108C00001A601AE0134B9869082202439A619A6924
:108C1000042082439A61124A536880200003034370
:108C20005360104A0D4B1A6007E00A4A93690C2002
:108C300083439361084A094B1A60064B9A690320E3
:108C400082439A619A69014011439961002000E0D2
:108C50001720704700B0004080BA8C012C540110DE
:108C600000F0004080841E00014B18687047C04629
:108C70002C54011000B5352800D9A2E18000D24B58
:108C80001B589F46D14AD16802230B43D360002072
:108C900098E1CE4AD16804230B43D360002091E1D0
:108CA000CA4AD16808230B43D36000208AE1C74A2F
:108CB000D16810230B43D360002083E1C34AD168FD
:108CC00020230B43D36000207CE1C04AD16880237D
:108CD0000B43D360002075E1BC4AD3688021490072
:108CE0000B43D36000206DE1B84AD36880210901AD
:108CF0000B43D360002065E1B44AD3688021490169
:108D00000B43D36000205DE1B04AD3688021890124
:108D10000B43D360002055E1AC4AD3688021C901E0
:108D20000B43D36000204DE1A84AD368802109029B
:108D30000B43D360002045E1A44AD3688021490257
:108D40000B43D36000203DE1A04AD3688021890213
:108D50000B43D360002035E19C4AD3688021C902CF
:108D60000B43D36000202DE1984AD368802109038A
:108D70000B43D360002025E1944AD3688021490346
:108D80000B43D36000201DE1904AD3688021890302
:108D90000B43D360002015E18C4AD3688021C903BE
:108DA0000B43D36000200DE1884AD3688021090479
:108DB0000B43D360002005E1844AD3688021490435
:108DC0000B43D3600020FDE0804AD36880218904F2
:108DD0000B43D3600020F5E07C4AD3688021C904AE
:108DE0000B43D3600020EDE0784AD3688021090569
:108DF0000B43D3600020E5E0744AD3688021490525
:108E00000B43D3600020DDE0704AD36880218905E0
:108E10000B43D3600020D5E06C4AD3688021C9059C
:108E20000B43D3600020CDE0684A116901230B4356
:108E300013610020C6E0654A116902230B431361E8
:108E40000020BFE0614A116904230B431361002035
:108E5000B8E05E4A116908230B4313610020B1E0BA
:108E60005A4A116910230B4313610020AAE0574AA4
:108E7000116920230B4313610020A3E0534A1169B9
:108E800040230B43136100209CE0504A116980236A
:108E90000B431361002095E04C4A1369802149007F
:108EA0000B43136100208DE0484A1369802189003B
:108EB0000B431361002085E0444A13698021C900F7
:108EC0000B43136100207DE0404A136980210901B2
:108ED0000B431361002075E03C4A1369802149016E
:108EE0000B43136100206DE0384A1369802189012A
:108EF0000B431361002065E0344A13698021C901E6
:108F00000B43136100205DE0304A136980210902A0
:108F10000B431361002055E02C4A1369802149025C
:108F20000B43136100204DE0284A13698021890218
:108F30000B431361002045E0244A13698021C902D4
:108F40000B43136100203DE0204A1369802109038F
:108F50000B431361002035E01C4A1369802149034B
:108F60000B43136100202DE0184A13698021890307
:108F70000B431361002025E0144A13698021C903C3
:108F80000B43136100201DE0104A1369802109047E
:108F90000B431361002015E00C4A117D01230B43A4
:108FA000137500200EE0094A117D02230B4313754F
:108FB000002007E0054A117D04230B4313750020B0
:108FC00000E0172000BDC0461829011000B0004085
:108FD00000B5432800D923E28000E04B1B589F4690
:108FE000DF4B596802229143596059680A435A601D
:108FF000002016E2DA4B59680422914359605968FF
:109000000A435A6000200CE2D54B5968082291436C
:10901000596059680A435A60002002E2D04B5968EF
:1090200010229143596059680A435A600020F8E1C0
:10903000CB4B596820229143596059680A435A60C2
:109040000020EEE1C64B59684022914359605968AF
:109050000A435A600020E4E1C14B596880229143E1
:10906000596059680A435A600020DAE1BC4B5968DC
:10907000BC4A0A405A605A68802149000A435A6033
:109080000020CEE1B64B5968B74A0A405A605A6888
:10909000802189000A435A600020C2E1B04B596820
:1090A000B24A0A405A605A688021C9000A435A608D
:1090B0000020B6E1AA4B5968AD4A0A405A605A6886
:1090C000802109010A435A600020AAE1A44B596893
:1090D000A84A0A405A605A68802149010A435A60E6
:1090E00000209EE19E4B5968A34A0A405A605A6884
:1090F000802189010A435A60002092E1984B596807
:109100009E4A0A405A605A688021C9010A435A603F
:10911000002086E1924B5968994A0A405A605A6881
:10912000802109020A435A6000207AE18C4B596879
:10913000944A0A405A605A68802149020A435A6098
:1091400000206EE1864B59688F4A0A405A605A687F
:10915000802189020A435A60002062E1804B5968ED
:109160008A4A0A405A605A688021C9020A435A60F2
:10917000002056E17A4B5968854A0A405A605A687D
:10918000802109030A435A6000204AE1744B596860
:10919000804A0A405A605A68802149030A435A604B
:1091A00000203EE16E4B59687B4A0A405A605A687B
:1091B000802189030A435A60002032E1684B5968D4
:1091C000764A0A405A605A688021C9030A435A60A5
:1091D000002026E1624B5968714A0A405A605A6879
:1091E000802109040A435A6000201AE15C4B596847
:1091F0006C4A0A405A605A68802149040A435A60FE
:1092000000200EE1564B5968674A0A405A605A6876
:10921000802189040A435A60002002E1504B5968BA
:10922000624A0A405A605A688021C9040A435A6057
:109230000020F6E04A4B59685D4A0A405A605A6875
:10924000802109050A435A600020EAE0444B59682E
:10925000584A0A405A605A68802149050A435A60B0
:109260000020DEE03E4B5968534A0A405A605A6873
:10927000802189050A435A600020D2E0384B5968A2
:109280004E4A0A405A605A688021C9050A435A600A
:109290000020C6E0324A53685B005B0853605368A5
:1092A000802109060B4353600020BAE02C4B1A8939
:1092B00001218A431A81198901220A431A81002057
:1092C000AFE0274B1A8902218A431A8119890222A9
:1092D0000A431A810020A4E0214B1A8904218A4301
:1092E0001A81198904220A431A81002099E01C4B33
:1092F0001A8908218A431A81198908220A431A8186
:1093000000208EE0164B1A8910218A431A81198990
:1093100010220A431A81002083E0114B1A89202170
:109320008A431A81198920220A431A81002078E091
:109330000B4B1A8940218A431A81198940220A431A
:109340001A8100206DE0064B1A8980218A431A8118
:10935000198980220A431A81002062E0F029011055
:1093600000B00040FFFEFFFFFFFDFFFFFFFBFFFF20
:10937000FFF7FFFFFFEFFFFFFFDFFFFFFFBFFFFF75
:10938000FF7FFFFFFFFFFEFFFFFFFDFFFFFFFBFF74
:10939000FFFFF7FFFFFFEFFFFFFFDFFFFFFFBFFF55
:1093A000FFFF7FFFFFFFFFFEFFFFFFFDFFFFFFFB54
:1093B000FFFFFFF7FFFFFFEFFFFFFFDFFFFFFFBF35
:1093C000184B1989184A0A401A81198980225200BB
:1093D0000A431A81002024E0124B1989134A0A40DB
:1093E0001A811989802292000A431A81002018E00C
:1093F0000C4B19890E4A0A401A8119898022D20021
:109400000A431A8100200CE0064B1989094A0A40D8
:109410001A811989802212010A431A81002000E072
:10942000172000BD00B00040FFFEFFFFFFFDFFFF63
:10943000FFFBFFFFFFF7FFFF8023DB049C46604438
:10944000800001607047C04670B5204B1C682368DF
:109450001D7DEDB26A0613D51E212222A1541A7E6B
:1094600023318A431A762123E35C1B0706D5202388
:10947000E35C1B0702D520002369984723681B7C07
:10948000EB0722D523681B7CDBB26269137063692A
:1094900001336361A38B013B9BB2A383A38B9BB27C
:1094A000002B12D12133E35C5B070ED52023E35C54
:1094B0005B070AD500222223E2542268137E012191
:1094C0008B431376E3682000984770BD3054011039
:1094D00070B5214B1C6823681D79EDB2EA0717D5DA
:1094E000A2691178C9B20132A2611970E38B013B04
:1094F0009BB2E383E38B9BB2002B09D12268137AE2
:1095000001218B4313722268117A10230B431372CB
:10951000EB0612D52123E35CDB070ED52023E35CA9
:10952000DB070AD500222223E2542268137A102195
:109530008B431372200063689847AB060AD521233A
:10954000E35C9B0706D52023E35C9B0702D5A36859
:109550002000984770BDC0463054011070B5204BB4
:109560005C6823681D7DEDB26A0613D51E21222298
:10957000A1541A7E23318A431A762123E35C1B0708
:1095800006D52023E35C1B0702D5200023699847FA
:1095900023681B7CEB0722D523681B7CDBB2626946
:1095A0001370636901336361A38B013B9BB2A38397
:1095B000A38B9BB2002B12D12133E35C5B070ED54A
:1095C0002023E35C5B070AD500222223E2542268B1
:1095D000137E01218B431376E3682000984770BD0A
:1095E0003054011070B5214B5C6823681D79EDB2D1
:1095F000EA0717D5A2691178C9B20132A2611970C0
:10960000E38B013B9BB2E383E38B9BB2002B09D13D
:109610002268137A01218B4313722268117A102376
:109620000B431372EB0612D52123E35CDB070ED547
:109630002023E35CDB070AD500222223E2542268C0
:10964000137A10218B431372200063689847AB068E
:109650000AD52123E35C9B0706D52023E35C9B0707
:1096600002D5A3682000984770BDC0463054011051
:10967000E1235B0203600023037143718371C371B3
:10968000023383600322C26001320261013242610F
:109690008361C361036243627047C046F8B54F46B9
:1096A0004646C0B405001700016000234360836094
:1096B000C36003614361836100228383C3832033DA
:1096C000C2540133C2540133C254554B994218D18C
:1096D0000920544CA0470A20A0470920524CA0471B
:1096E0000A20A047514B1D6051491020514CA04702
:1096F00051491120A047514B01221A6001321A60D2
:109700001AE04F4B994217D10B20464CA0470C2032
:10971000A0470B20444CA0470C20A047434B5D6062
:1097200048491220434CA04747491320A047434BC8
:1097300004221A6004321A60FB7904229046002B3E
:1097400052D1023398464FE0318A01CEC0B2C847A9
:109750000134E4B24445F7D32B681A7DD20704D50F
:1097600001211A7C1A7D0A42FBD100212022995442
:10977000FB79591E8B4159013B797A7913430B438D
:10978000BA79022A0DD0D1B2022902D8012A05D015
:109790000FE0032A08D0042A09D00AE0022213436A
:1097A00007E00622134304E00A22134301E00E22DD
:1097B0001343202229688B543E68244B98470400A9
:1097C0003100234B984782B20004000C7043201AEA
:1097D0003109884206D900230133DBB2401A88429E
:1097E000FAD807E0002305E03E0008360024194BB4
:1097F0009946A9E7002128202C68215401331B0732
:109800005B0FD20013439BB22A6893842B681976AE
:109810002B68197200200CBC90469946F8BDC046D2
:1098200000400040D18F0010758C001030540110A2
:109830004994001039940010D194001000E100E028
:10984000005000405D950010E5950010698C0010F7
:10985000D1F80010998A00100268012013790342A0
:10986000FCD011700020704702680120137D034274
:10987000FCD0137C0B7000207047C0461723002AD1
:109880000DD00B33C35CDBB2052B08D08283416162
:1098900005222223C2540368043A1A7600231800D2
:1098A0007047C0469300C31859602021012393409C
:1098B000425C13434354704710B5212201238B406F
:1098C000845C23438354012904D10268117A202344
:1098D0000B43137210BDC04610B501228A402124EB
:1098E000035D93430355012904D10268137A1F31A4
:1098F0008B43137210BDC0460268117A10230B43CC
:1099000013720368074A934204D102218023064A56
:10991000D15006E0054A934203D108218023024A30
:10992000D15070470040004000E100E0005000408E
:109930000268117E01230B4313760368074A9342A2
:1099400004D102218023064AD15006E0054A934201
:1099500003D108218023024AD150704700400040C3
:1099600000E100E000500040F0B5474680B40C0034
:10997000904600280DD1002A0EDD8F18084E094DA3
:10998000306821002B6898470134A742F8D140463F
:1099900003E00120404200E0002004BC9046F0BDFE
:1099A0004054011038540110F0B5474680B40E0001
:1099B00015000138022811D8002A12D000240C4BBF
:1099C00098460C4F43461868315D3B68984700281D
:1099D00009DB0134A542F5D1200006E00120404218
:1099E00003E0002001E00120404204BC9046F0BDAD
:1099F000405401103C5401100300064A1268002A2A
:109A000002D10549034A1160024A1068C318136065
:109A10007047C04678390110486E0110012040425D
:109A20007047C04680239B014B6000207047C046B2
:109A3000012070470020704730B500230022438288
:109A400002700F214170093181708382827519245F
:109A5000C47511340476183C0485114CC462012489
:109A60000486448622253334055583638387C38760
:109A700010340255013402550134025502340353A7
:109A80000234035302340353064B483C1C705A7093
:109A9000598001221A711022DA80036430BDC04659
:109AA000D03801104454011010B582B001001231B9
:109AB0000123019303001433009300230022024C7E
:109AC000A04702B010BDC04605D60010F0B583B067
:109AD00006000F001D006B46D91D0A70B88A0122CE
:109AE000124B9847041E08D01148124B984721008A
:109AF0001148124B9847200016E0114B1B780020AC
:109B0000002B11D0B98A30000E4B9847041E08D0A4
:109B10000748084B984721000B48084B98472000FE
:109B200002E000232B70002003B0F0BD25D600100A
:109B3000002B011035180110042B0110151701100E
:109B40007C390110C5D700102C2B011070B5194CB1
:109B5000A54406000C0011001D00174A01A8174B70
:109B600098474A23E25A01AB5B8800209A421DD1F4
:109B700001AB1B7A002B15D00122114B1A70A18A60
:109B80003000104B9847041E08D00F480F4B9847E1
:109B900021000F480F4B9847200007E000232B704F
:109BA000002003E00022064B1A70002084239B0053
:109BB0009D4470BDF0FDFFFF0A020000F316011086
:109BC0007C390110C5D70010002B01103518011089
:109BD0002C2B011015170110002070470020704732
:109BE000C078002800D0E2207047C04600207047AF
:109BF00010B50078002806D00348044B9847044865
:109C0000044B9847E22010BD002B011035180110BD
:109C1000BC2C01101517011010B50400C0780028E5
:109C200008D00548054B9847A27821880448054B81
:109C30009847E22010BDC046002B011035180110D6
:109C4000D02C011015170110F8B50400194B9B22F8
:109C500092009D180127002618001A00563A118814
:109C60002288914219D11A78052A01D0082A01D1F7
:109C7000077012E0072A0FD892000F498A589746BA
:109C80001E700E4A1278002A07D00C4A1278013A48
:109C9000D2B20A490A7000E006707C33AB42DBD1D5
:109CA0000748084B98472288A1780748074B9847F0
:109CB0000020F8BDC25401104C2B0110D0560110E9
:109CC000002B011035180110082D01101517011077
:109CD000F8B506000188284B00241A898A4204D16D
:109CE0001A005E321278062A2ED00134E4B27C3398
:109CF000052CF2D139E0204963011A1B92008A1821
:109D0000157614005E34072323701C481C4B9847BB
:109D10001C481D4B9847E2252BE01848184B9847E4
:109D20001A48194B9847144963011A1B92008A1864
:109D300010005E3008270770F0781075B2781C1B91
:109D4000A4000C19227614E0B578002DE5D0D2E7F6
:109D50000A4E30000A4DA8470C480B4CA047300073
:109D6000A8470B48A047E22503E0B578002DC2D1F3
:109D7000EEE72800F8BDC04664540110002B011026
:109D800035180110382D0110151701104C2D011038
:109D9000702D011010B50100154B1B78DBB2132B91
:109DA00012D8134C2378DBB29800C018C000C31837
:109DB000104818182922104B98472378237801332C
:109DC000DBB22370002311E00C480D4B98470D487F
:109DD0000D4B98470D4B9847E223002806D00748C3
:109DE000074B98470A48084B9847E223180010BDD4
:109DF0006442011048570110F3160110002B0110A6
:109E000035180110982D01101517011001CE001002
:109E1000D02D0110F8B54F464646C0B40500418824
:109E20003A4B00241A898A4204D11A005E32127811
:109E3000032A62D00134E4B27C33052CF2D12BE04A
:109E400063011C1BA400314B1C195E342378012BC9
:109E500013D92F482F4B98472F48304B9847688885
:109E600013212F4B9847061E4BD02948294B984762
:109E70002C482A4B9847E22643E0002641E0244E36
:109E80003000244DA8472848244CA0473000A8475C
:109E90002648A047E22634E02B79002BD0D1EEE70C
:109EA0001B481C4B984720481C4B98472A78174B57
:109EB000994667013B1B9B004B441A752A791A7619
:109EC0005E3305221A70381B800048443630290062
:109ED00022310B32164B98469847381B8000484475
:109EE0004630290032311722C047381B80004844D1
:109EF0001A30A91D1C22C04703E02E79002ECFD0B6
:109F00009EE730000CBC90469946F8BD64540110A1
:109F1000002B011035180110E82D01101517011044
:109F200021CE0010082E0110242E0110502E0110F9
:109F3000F316011010B50088782301220121024C8C
:109F4000A047002010BDC046A5CE0010F0B5574672
:109F50004E464546E0B484B004000922002101A821
:109F60006B4B984725886B490A0000231089A8424B
:109F700016D110005E300078022811D165485A01D0
:109F8000D61AB60086195E3606223270F9321340B0
:109F90005A01D21A92008218127DD00705D41BE014
:109FA00001337C32052BE1D11EE0E078002813D08C
:109FB0005901C91A8B005749C9181A312088564BC4
:109FC0009847002800D19DE05448554B9847554884
:109FD000554B9847E22095E05A01D31A9B004D4A11
:109FE000D3185E3302221A7025880022002316003F
:109FF0000889A8420DD108005E300078022808D1F7
:10A000005201921B9600434A92195E32032111704D
:10A0100005E00133DBB201327C31052BE7D101AA27
:10A0200002211172E1789170012151700331117098
:10A030001F005A01D21A92003649525C022A04D1FA
:10A0400001AA03219171D17103E001AA012191714B
:10A05000D17101AA1021517111717A01D21B9200A4
:10A060002C498A18127E402A34D15A01D31A9B00F7
:10A070009A461E0060367618554668356D182B4B8B
:10A0800099460F239846C847434618403070C84742
:10A0900043461840B0740136AE42F4D1564670368D
:10A0A0001C4AB618214B99460F239846C847434689
:10A0B000184028700135B542F8D11C4B98477B01F8
:10A0C000DB1B9B00134AD3181A00703210807A33BE
:10A0D00010221A707A01D71BBF0060370D4ABA18D8
:10A0E0002088002301A9124CA04700280AD001AB08
:10A0F00000229A705A700948094B98470D480A4B3C
:10A100009847E22004B01CBC90469946A246F0BD98
:10A1100005170110645401108DDA0010002B011096
:10A1200035180110802E0110151701104918011063
:10A13000A1D80010982E0110F0B55F4656464D4646
:10A140004446F0B485B083460488494A0021002380
:10A150001089A0420DD110005E300078022808D18D
:10A160004A01521A9500424A52195E320321117077
:10A1700005E00133DBB201317C32052BE8D101AAC5
:10A180000221117201399170517000211170D1704A
:10A190001F005A01D21A92003549525C022A04D19A
:10A1A00001AA03219171D17103E001AA01219171EA
:10A1B000D17101AA1021517111717A01D21B920043
:10A1C0002B498A18127E402A31D15A01D31A9B009A
:10A1D0009A461D0060356D18544668346418254B46
:10A1E00099460F26C84730402870C8473040A874A9
:10A1F0000135A542F6D1554670351D4AAD181D4BA7
:10A2000099460F239846C8474346184020700134AA
:10A21000AC42F8D1174B98477B01DB1B9B00144ADB
:10A22000D3181A00703210807A3310221A707A0113
:10A23000D71BBF0060370E4ABA185B461888002348
:10A2400001A90D4CA04700280AD001AB00229A704A
:10A250005A700A480A4B98470A480B4B9847E22025
:10A2600005B03CBC90469946A246AB46F0BDC04600
:10A270006454011049180110A1D80010002B0110DE
:10A2800035180110C42E011015170110F0B585B056
:10A29000050006223D4902A83D4EB04701AC04220C
:10A2A00029002000B047E378002B62D139483A4BAF
:10A2B00098473A483A4B984700263A4CFF271E20C9
:10A2C000A047C3B2002B1AD1324F3800324EB047EC
:10A2D0003548334CA0473800B0473448A047288859
:10A2E0001321334B98470300E220002B4CD0294820
:10A2F000294B98472F482A4B9847E22044E01A0000
:10A30000303A092ADBD802AAB35438402A4B98477E
:10A310000136062E26D0D2E71E481F4B9847274805
:10A320001F4B98470024244E02ABE05CB047013439
:10A33000062CF9D101AB9978288802AA204B9847BE
:10A34000002821D01348144B98471E48144B9847B7
:10A35000002019E00F48104B98471B48104B9847B6
:10A36000002011E00B480C4B984718480C4B9847BD
:10A37000D8E701AB5A8880235B009A42CCD001AB6E
:10A380009B78012BE6D0002005B0F0BD782C0110A1
:10A39000F3160110002B011035180110EC2E0110DE
:10A3A0001517011059B00010142F0110202F0110A3
:10A3B00021CE0010082E011049170110342F011072
:10A3C000D1D900106C2F0110842F0110A02F011083
:10A3D000F8B5060005882F4B0022002410001989CB
:10A3E000A94216D119005E310978012911D92949EC
:10A3F0005201101A800008185E30062303706201B3
:10A40000131B9B00CB1870331A8873889A4213D1A0
:10A4100006E00134E4B201327C33052CDED10BE0DE
:10A420006101091B89001B4B59187231301D08222C
:10A43000194B9847002815D0184F3800184EB047D0
:10A440001848194DA8473800B0471848A847630175
:10A450001C1BA4000F4B1C1920890521144B984785
:10A46000E22016E06201131B9B00603309495B1870
:10A47000141BA4000C19217D308801220D4CA0472B
:10A48000002806D00548064B98470B48064B9847CE
:10A490000020F8BD64540110D5160110002B0110E6
:10A4A00035180110B42F011015170110EC2F0110F1
:10A4B00021CE001005DB00104430011030B5002A19
:10A4C00047D0062947D88900284B5B589F46284B20
:10A4D00005240AE0274B012407E0274B052404E06C
:10A4E000264B012401E0264B0524002816D11968CB
:10A4F00000290BD106E01D000433181F0068002856
:10A5000006D100E01D002A6001212CE00433002167
:10A510000131C9B2A142EED3002124E0002101287B
:10A5200021D119688A420CD106E01D000433181F9E
:10A530000068824207D100E01D0000232B6001214A
:10A5400011E0043300210131C9B2A142EDD3002151
:10A5500009E0002107E0002105E00A4B0524C4E7DB
:10A56000094B0124C1E7080030BDC0466C2B011027
:10A57000505401104C540110D4560110885C011045
:10A58000E8560110FC56011044570110F0B55F4623
:10A5900056464D464446F0B491B0050000247E4B2B
:10A5A0001C60072200217D487D4EB0471222002109
:10A5B0007C48B0477C4A00217C48B0477C4B1C70EB
:10A5C000CD22920000217B48B0477B4B1C70832238
:10A5D000920000217948B047794B9B468023DB00ED
:10A5E0009A461A0000215846B047764B9946802378
:10A5F0005B0198461A0000214846B047724F1C2262
:10A6000000213800B0475B46BB605346FB604B46B9
:10A610003B6143467B616D4B1C605C609C60DC6011
:10A620001C616B4B1C605C609C60DC601C61694B56
:10A630001C605C609C60DC601C61674B1C60674B4D
:10A640001C60674B1C605C609C60DC601C61654B3F
:10A650001C60654C9B239B009846A044504F4026AD
:10A660007C2200212000B84723005E3300221A70AC
:10A6700026767C34A045F3D15C4B1A70524C4A4B81
:10A6800063604A4B23605A485A4B98475A485B4B81
:10A69000984720005A4B984700280BD0544E300062
:10A6A000544DA8475748554CA0473000A847564836
:10A6B000A047FEE7554A00210020554CA047554AC7
:10A6C00002210020A04709215348544B98470028F5
:10A6D00005D04748474B98475148484B9847072271
:10A6E0005049083104A8504B98472622002106A85B
:10A6F0002B4B9847002D0CD104A84C4B984704AD28
:10A70000002806D03A483B4B984749483B4B98476E
:10A7100004AD3748374B98472B796A79A97928785F
:10A72000039068780290A8780190E87800904148FA
:10A73000324CA04706AC0A2323703F4B63800722AC
:10A74000290007A8384B98470023E37623776377DF
:10A75000A377E3772384638480239B00A384200072
:10A76000364B9847002805D02148224B984734485B
:10A77000224B98472800334B9847002805D01C48A7
:10A780001C4B984730481D4B984711B03CBC904635
:10A790009946A246AB46F0BD6042011068420110E6
:10A7A0000517011010570110E2040000803D011050
:10A7B0006442011048570110405701107C5A0110A3
:10A7C000803901107042011024570110E856011021
:10A7D000FC56011050540110445701104C54011004
:10A7E000D4560110885C011064540110D056011039
:10A7F000002B0110351801106430011015170110DD
:10A8000039CA00107830011098300110D032011090
:10A81000BDA40010942C0110D430011051C90010B7
:10A82000E0300110782C0110F316011085C90010DA
:10A83000F830011010310110983A0000A9C9001039
:10A8400048310110EDCB00106C31011010B5012220
:10A850000121064B9847002806D00548054B98472C
:10A860000548064B9847E22010BDC0464DDA00105F
:10A87000002B011035180110A83101101517011017
:10A88000F0B55F464E464546E0B49AB00500867A7C
:10A89000002E00D0C6E07548754FB8472B796A790D
:10A8A000A97968780290A8780190E87800907148BA
:10A8B000714CA0476D48B84729897048A0471222BB
:10A8C00029006F486F4B98470495072229006E486E
:10A8D0006E4B9847002800D1ADE02B78022B00D0BA
:10A8E000A9E05022002106A8694B9847694F002330
:10A8F0000BE0591C147806A8C45401328BB2B34241
:10A90000F7D17C37331E502B04D01E001036B6B260
:10A910003A00EEE706AA290005205F4B9847061E7D
:10A9200000D19CE05148524B98475C48524B9847A5
:10A93000E22694E0E7B20594072204994846D847F6
:10A94000002809D1059A53019B1A9A00544B9B1871
:10A950005E3302221A702BE001347C239C46E144D2
:10A96000052CE7D172E01C00117800291AD101E012
:10A970000024002763019946181B8000484B984625
:10A980004044122229003F4B9847464A137801332E
:10A99000DBB213704B461B1B9B0043445E33022209
:10A9A0001A7005E0791CCFB201337C32052FDAD161
:10A9B000072229003448354B984700280CD17B01E9
:10A9C000DB1B9B00364AD31805229A740232002101
:10A9D0002D482F4B984742E0314B98467C01E31BB2
:10A9E0009B0043440A229A74033A00212648284BCC
:10A9F0009847E41BA4004444A37C0A2B2FD10DE00C
:10AA00001A481B4B9847274B1978C9B226481A4B4E
:10AA1000984728891321254B984720E02889244B03
:10AA200098471CE01148124B9847A97A2148124BCD
:10AA30009847002613E01B4B1B78DBB2042BDFD8B2
:10AA4000174B99460024114B9B4673E75E23144A2B
:10AA5000D35C002B8CD0184A0123012783E73000F8
:10AA60001AB01CBC90469946A346F0BD002B0110BD
:10AA700035180110C8310110151701100C320110E2
:10AA800010570110F316011068420110D51601107D
:10AA900005170110AA540110B1CE00102432011084
:10AAA00064540110D05601104832011021CE00101C
:10AAB0004DA80010843201103E550110F0B54746F4
:10AAC00080B40378002B41D12F4D0024461C2F4F1A
:10AAD000102229003000B84700283FD00134E4B2EA
:10AAE0007C35052CF4D131E0DDB21C001178002951
:10AAF00022D101E000240025254B98466601371B32
:10AB0000BF004744122223493800234B9847234A69
:10AB100013780133DBB213705E3702233B70341BB2
:10AB2000A40044440833A3746B015D1BAD0045448D
:10AB3000AB7C0A2B23D104E001337C32052BD3D12B
:10AB40001DE0144B1889164B984718E05E23104AF5
:10AB5000D35C002BCED0134A0123C5E70C48630118
:10AB60001A1B9200821811005E3102250D700A2115
:10AB70009174100012220749074B9847E1E7002023
:10AB800004BC9046F0BDC046AA540110D516011071
:10AB90006454011010570110F3160110D056011023
:10ABA0004DA800103E550110F8B50D003B2872D895
:10ABB00083003C4AD3589F46840000263A4FBB5935
:10ABC000002B04D01B59002B01D0280098470436D5
:10ABD000142EF4D165E01338C4B2A4000026334F1C
:10ABE000BB59002B04D01B59002B01D028009847DB
:10ABF0000436142EF4D154E01D38C4B2A40000264B
:10AC00002B4FBB59002B04D01B59002B01D028001F
:10AC100098470436142EF4D143E02738C0B2254BB0
:10AC20001B68002B3DD08000C358002B39D0080092
:10AC3000984736E02D38C0B21F4B1B68002B30D030
:10AC40008000C358002B2CD00800984729E03638E4
:10AC5000C4B2A4000026194FBB59002B04D01B59C5
:10AC6000002B01D0280098470436142EF4D118E0A8
:10AC70003838C0B2124B1B68002B12D08000C3586A
:10AC8000002B0ED0080098470BE00E4B1B68002BE2
:10AC900007D0984705E00C4D28000C4CA047280031
:10ACA000A047F8BD882B0110E8560110FC56011092
:10ACB00050540110445701104C540110D456011047
:10ACC000885C011060420110002B01103518011042
:10ACD00010B5020006490748074B9847041E04D1E7
:10ACE000044B18780249054B9847200010BDC04618
:10ACF0007C5A011040570110E1C10010A9AB0010AF
:10AD000070B590B008AC032363700F22A2700932B3
:10AD1000E270237007332371092666710F3A1249D6
:10AD200026206844114DA84700236A461370153346
:10AD30005370E673EA33237408220D491031312031
:10AD40006844A84700236A4619212000094CA047FF
:10AD5000002805D00848094B98470948094B9847EF
:10AD6000002010B070BDC046D4300110F3160110A1
:10AD7000782C011041CC0010002B01103518011067
:10AD8000AC3201101517011010B582B0041E00D1AD
:10AD900001346846074B984702236A461370002324
:10ADA0005370E40301946846034B9847012002B0B6
:10ADB00010BDC046E98000106D81001070B5084BD1
:10ADC000984780221205074B1A60074C074E012551
:10ADD00000E03570A0470028FBD0012070BDC046C0
:10ADE0005581001000E100E019810010705201103F
:10ADF00010B5084B1B78012B0BD10022054B1A70A4
:10AE0000054B9847054B9847802109058023044A44
:10AE1000D15010BD70520110F980001061810010F6
:10AE200000E100E07047C04600B589B001A8054BBD
:10AE30009847054B0393054B069301A8044B98478D
:10AE400009B000BD9586001080BA8C010075190309
:10AE50002987001010B501000020074CA0470749C2
:10AE60000120A0470020064CA0470120A0478022D7
:10AE7000D201044B1A6010BD2D88001025AE0010C1
:10AE80000587001000E100E010B5002800D1013076
:10AE9000054B43431A0000210020044B9847002033
:10AEA000034B984710BDC04680BA8C01B98600108C
:10AEB000E186001010B50020014B984710BDC04638
:10AEC0000587001010B50E4B1B78012B0BD1022209
:10AED0000B4B1A700B4B1B68002B10D102210A4838
:10AEE0000A4B98470BE0074B1B68002B07D0084C18
:10AEF00020789847012221000348064B984710BD4F
:10AF000078520110805201108C5C0110D998001009
:10AF10007C5201107D98001070B506000D00034CA6
:10AF200029003000A0470028FAD170BD69980010B0
:10AF300070B506000D00034C29003000A047002822
:10AF4000FAD170BD5998001070B500210020194B3E
:10AF50009847194C2000194B9847E1235B02236066
:10AF60000223A3600322E2600132226101326261A6
:10AF7000A361E36123626362114D124B1D60124AAB
:10AF8000124B1A60124A134B1A6022001249280011
:10AF9000124B9847124E336898680021114CA04715
:10AFA000336858680021A04702220F4928000F4B40
:10AFB000984770BDE58B0010B05C011071960010D1
:10AFC0008C5C01104054011031AF00103C54011052
:10AFD00019AF001038540110004000409D96001039
:10AFE00038390110C1180110C5AE0010A598001025
:10AFF000F0B583B005000D4CA047A0470C4FB847F3
:10B000000C4E0D4A0D4BB04700900191FA20800084
:10B010006843B84702000B0000980199B047084BFD
:10B020009847084B186003B0F0BDC046698C00100B
:10B030007111011069050110C7AEFE19EFD8093F63
:10B0400019FA001074520110024B1A68501E186051
:10B050007047C0467452011070B504000122114BB4
:10B060001A70114B1B68002B03D102210F48104BA3
:10B07000984720000F4B98470F4900230B7001227F
:10B080000A480E4B9847074C0D4D2378022B02D0EF
:10B09000A8470028F9D10022024B1A70064B1878F5
:10B0A00070BDC04678520110805201108C5C0110B6
:10B0B000B9980010F1AF00107C5201107D9800107B
:10B0C00049B00010024B1A68026018607047C04611
:10B0D0008852011030B50B4B1C68002C11D025682C
:10B0E0001D6000232360A160E280A080064B1A68E7
:10B0F000002A02D11C6004E01A001368002BFBD167
:10B10000146030BD885201108452011070B50023C4
:10B11000064A1360064A1360064C26007836064D30
:10B120002000A8470C34B442FAD170BD88520110F7
:10B13000845201108C520110C5B0001070B504008B
:10B14000134B1D68134B1B6898470C2C1FD00C3CED
:10B15000E388052B1BD0EB0714D40F4B1B68022090
:10B1600098470E4B1B6898470D4C0320236898475F
:10B170000028FAD10B4B1B680230984701220A4B7A
:10B180001A6004E0094B1868094B1B68984770BDAA
:10B19000ECB10040345301102C5301104053011006
:10B1A000185301102053011020B000402453011007
:10B1B0001453011010B5064B064A196811605A68FD
:10B1C000054B1A60054B1B68002B00D0984710BD3B
:10B1D000D85C01100CB0004010B00040B45F01100A
:10B1E00070B5322200210D480D4B984700210B48C5
:10B1F000012502244A001154821853782B43DBB2F4
:10B20000A343537001311929F4D1044B5A781839EA
:10B210008A435A70DA788A43DA7070BDF45C0110A0
:10B2200005170110064A1168064B0B401360064AC9
:10B23000136006490868064B03400B605360704773
:10B240000CB00040D30FFEFFD85C011010B00040DE
:10B25000C0E7FFFFF0B557464E464546E0B44F4BBA
:10B260001B78002B04D04D4B1B78012B00D18CE0B8
:10B270004B4B98474B4B9847002398464A4B4246C6
:10B280001A604A4C8023802212049246E2508022A7
:10B2900052049146E250464D464B2B60464B474A7E
:10B2A00013604749474A1160474A1168474A11608D
:10B2B000474A1168474A11604749484A116048495E
:10B2C000484A1160484F494A3A604949494A116021
:10B2D00049494A4A11604A4E4A4A32604A494B4AF1
:10B2E00011604B494B4A11604B494C4A11604C4923
:10B2F0004C4A11604C494D4A1160282098474C49EE
:10B3000028202B6898472B684A49272098474A4BA2
:10B310001A684A4B1A604A4A4A4B1A604A4A4B4BCF
:10B320001A604B4A4B4B1A604B4A4C4B1A604C4AC2
:10B330004C4B1A604C4A4D4B1A604D4A4D4B1A60AB
:10B34000A022920000214C484C4B9847802292004A
:10B350004B4B1A804B4B9847534623604B46236018
:10B36000494B42461A603B68484A1A603368484A6B
:10B370001A600020474CA0470120A0470220A047A8
:10B380000122064B1A70002003E00122034B1A70C1
:10B3900001201CBC90469946A246F0BD1C530110EA
:10B3A000E1B1001025B200103C53011000E100E0B3
:10B3B000A85F0110D7070000BD070000E45C011082
:10B3C00051BC0100AC5F0110BC0004100C53011013
:10B3D000B8000410085301109FB90100E05C01108F
:10B3E000DBB90100EC5C0110BC5F01103C000410F3
:10B3F000C01F0410F05C0110C41F0410B85F0110DE
:10B40000B05F0110D41F0410D81F0410E85C0110B5
:10B41000E9CB01002C5301108FCD01002053011006
:10B42000A3CE010040530110CFCB010018530110EF
:10B43000ADB8001041B80010E400041034530110FE
:10B44000E99F010044530110DDDB0100145301109A
:10B450005BDC010028530110EC050410245301109B
:10B46000E3D5010030530110200C041048530110A3
:10B47000099F010004530110285D011005170110F8
:10B48000C05F01100DB10010B45F0110B5B1001024
:10B4900009B90010F1B80010044B1A780523012AED
:10B4A00002D1034B18600023180070471C53011091
:10B4B0003C53011070B504000E4B1B68002B02D0EA
:10B4C000408898476080E388A288618820880A4D78
:10B4D0002D68A8470500E288002A02D1074B98474B
:10B4E00006E021000831064B98472800034B984797
:10B4F00070BDC0460C530110445301103DB1001003
:10B50000F316011070B515001C000A0202430A4B25
:10B510001E6823000521A020C000B047061E0AD0E7
:10B52000002C05D0002D03D022002900034B9847A2
:10B530003000034B984770BD44530110F3160110BF
:10B540003DB10010F0B55F4656464D464446F0B456
:10B5500087B0441E00239946E31C1CD80D2200210D
:10B5600002A8824B9847332302AA1370303B5370D2
:10B5700093700233137193711472230A5372230C64
:10B580009372240ED472012313730D211000784B93
:10B5900098470123994600240025764F764E774937
:10B5A000386833689847002800D088E0734B1C68DF
:10B5B000A3889A46CD239B009A4500D1C7E02389F2
:10B5C0009B46638998464B46002B11D00D220021E3
:10B5D00002A8664B9847332302AA1370303B53707E
:10B5E00093700233137193710D211000604B9847D3
:10B5F000A023DB009A4521D1614B1B884344A02244
:10B600009200934202DD803A5D4B1A805C4B9A4671
:10B610001D885C4BED1821000C31424628005A4B26
:10B620009847424629005846584B984753461B882E
:10B63000434452461380002402253AE0544B1B68D1
:10B64000002B32D04D4B1A689388CD2189008B4254
:10B6500004D14B460124002B2BD028E04D4C494D02
:10B6600025602B701B0A6B7010894B4B1B68984729
:10B670002871000A68712068404B1A68D28842809D
:10B680001D686B89C380083020606A89002A03D056
:10B6900029000C313C4B9847698908313C4B1B68A9
:10B6A000384898470024032503E0002401E00024E3
:10B6B000D025324B1868394B1B68984700E00725A6
:10B6C000002C00D06BE74B46002B46D0294B1E6860
:10B6D000002E04D100231C6A002C31D13DE0346AD5
:10B6E00014239C46B4446346604600932C4B1B686D
:10B6F0009847002C1FD00027CD239B009846274B4E
:10B700009A46200003689B88434510D1002F06D03D
:10B710008368BB6053461B689847B86809E0836834
:10B7200033621E4B1B6801939847306A01E00700A3
:10B7300080680028E6D11B4B1B68009898470CE0F6
:10B7400014230093164B1B6814209847D3E7104B23
:10B750001B680024002BACD07BE7280007B03CBC62
:10B7600090469946A246AB46F0BDC046051701106B
:10B77000B5B400104853011030530110105301109C
:10B78000C05F0110285D0110F3160110D5B0001044
:10B790003C53011038530110085301100453011099
:10B7A000285301101453011010B5034B1B6880205F
:10B7B000C0019847002010BDEC5C0110002803D0A8
:10B7C000024B1860002000E009207047B45F0110B0
:10B7D00030B5184A138F9BB2108D802109020143A6
:10B7E00011851000144D01240022DB05DB0D11D062
:10B7F000DBB259420B40012B06D011005B0801312E
:10B80000C9B2012BFAD100E0110023008B409BB29A
:10B81000038703E0038F2B439BB20387038FDB0572
:10B82000DB0DE2D1802149008133FF33034AD1503F
:10B8300030BDC046001001400080FFFF00E100E085
:10B8400030B5174A138F9BB2108D80210902014336
:10B8500011851000134D01240022DB05DB0D11D0F2
:10B86000DBB259420B40012B06D011005B080131BD
:10B87000C9B2012BFAD100E0110023008B409BB22A
:10B88000038703E0038F2B439BB20387038FDB0502
:10B89000DB0DE2D180218133FF33034AD15030BD2B
:10B8A000000001400080FFFF00E100E010B50C4BFC
:10B8B0001B8F5B0B10D00B4B1B689847084A138FEC
:10B8C000118F5B0B5B030B43138780214900C0235F
:10B8D0005B00054AD15001E0044B984710BDC046BB
:10B8E00000100140AC5F011000E100E0D1B7001092
:10B8F0000323022804D880000022024BC2500023F8
:10B9000018007047C45F011010B504000378012BC4
:10B9100008D1114B1B68002B00D09847FF232268E9
:10B920009A4322606378012B08D10B4B5B68002B94
:10B9300000D09847094B226813402360A378012B5D
:10B9400008D1054B9B68002B00D09847044B226818
:10B950001340236010BDC046C45F0110FF00FFFF0D
:10B96000FFFF00FF0022024B1A7000207047C04604
:10B97000575301100289024B1A8000207047C046BD
:10B98000E45F0110C378002B02D10122014B1A7031
:10B9900000207047D138011010B5024B9847024B78
:10B9A000984710BDE1B1001049AF001010B54378C1
:10B9B000032B06D10748084B98470122074B1A7002
:10B9C00005E00748044B98470022044B1A700020FA
:10B9D00010BDC046D8330110151701105653011081
:10B9E0000034011070B51748174B9847174C207852
:10B9F000174EB047051C174B18606078B047164BC0
:10BA000018601649164B9847291C164B9847164B39
:10BA10001860A378612B03D10122144B1A7004E043
:10BA2000622B02D10022114B1A70084B1A7910496F
:10BA30000A705B790F490B7064214A43D3180E4A90
:10BA4000138070BD04600110198400105053011060
:10BA5000ED04011000600110E05F011000002041C2
:10BA600041FD001055FA0010E85F0110D05F011091
:10BA700059530110585301104C53011010B502488E
:10BA8000024B984710BDC046346001101984001065
:10BA900010B504004A230D4AD25A43889A420DD168
:10BAA000437A1B02027A134302D1094B984705E0FF
:10BAB0000120084B98470848084B98472078084BC6
:10BAC00022000249074CA04710BDC0467460011017
:10BAD000F1AD001089AD0010E9BA0010BDAD001045
:10BAE000D13801104D9B001010B50122044B1A7083
:10BAF0000023002201214120024CA04710BDC04676
:10BB00005753011005B5001010B5044B984701229A
:10BB1000034B1A700A20034B984710BDB5AE0010B6
:10BB20005A53011089AE001070B50400114B142255
:10BB30001A803C325A8000229A801A815A81F5324A
:10BB4000FF32DA800C480D4DA8470D48A8476088A1
:10BB500002210C4B98470C4B18701B78002B03D01C
:10BB60000A48064B9847FEE760880249084B984709
:10BB7000002070BDD45F011028340110151701108A
:10BB80005034011059DB0010C460011084340110DE
:10BB900041CE001010B584B01548164B9847164B8F
:10BBA0009847164B18701B78002B06D0134B19784A
:10BBB000C9B213480F4B9847FEE700230293114B7D
:10BBC00001935A33FF330093002300220121002008
:10BBD0000D4CA047094B18701B78002B06D0074B63
:10BBE0001978C9B20648034B9847FEE704B010BD68
:10BBF000A83401101517011001AD0010C460011028
:10BC0000CC3401108F020000C5CC001010B500220A
:10BC1000054B1A700132054B1A70054B9847054BBE
:10BC20009847002010BDC04657530110D13801106D
:10BC3000F1AD001095BB001010B50348034B9847B9
:10BC4000034B9847002010BDFC340110151701105C
:10BC500095BB001010B582B001AC2000044B984792
:10BC60000123237021001620024B984702B010BD1B
:10BC70004588001055880010F0B55F4656464D4681
:10BC80004446F0B493B000223F2302A98C4663449B
:10BC90001A70C44B9847C44B9847C44B9847C44844
:10BCA000C44B9847C448C54CA047C54B9847C548A6
:10BCB000C54B98470120C54B9847C548A047002071
:10BCC000C44B9847C44A136801218B431360002179
:10BCD0000020C24B984707A8C14B984796239B0169
:10BCE00007930223099303220A9201320B92013235
:10BCF0000C920D930E930F931093BA4DBA4C07AA62
:10BD0000BA492800A0470028F9D1B64B9A46180036
:10BD1000B74B98475046B74B984707AC2000B64EF4
:10BD2000B04702230222914623730025E572E37097
:10BD3000B24F21003800B24B9B4698472000B047D5
:10BD4000012398460126E370A5702371AD4D2100B3
:10BD50002800D847AC490B7B33434A4613430B7347
:10BD600003239B46CB685A461340CB6006239C4670
:10BD70008B60A64B0B6053461B684B60A44C227B28
:10BD800032434846024322735A46E0680240E2606A
:10BD90006246A260103323609C4B636038009D4B69
:10BDA0009946984721002800C8479B4B7B609B4BD6
:10BDB0006B602423FA5C3243FA54EA5C1643EE5477
:10BDC00080221202964B1A602800964B9847964B99
:10BDD0001868964B984781B29548784CA04795488B
:10BDE000A047954B02930C230193434600931D33C8
:10BDF000012204210120914CA047914B18701B781F
:10BE0000002B03D08F486D4B9847FEE78E486B4B55
:10BE100098478E4A002100208D4B9847884B187018
:10BE20001B78012B02D08B48644B98478A4A042127
:10BE30000020874B9847824B18701B78012B02D04B
:10BE400086485E4B9847864C3F2102AB9C46614436
:10BE50002000844B98472000834B9847041E06D04F
:10BE60005348544B984721008048544B98473B20F7
:10BE70007F4B98477F4B98477F4A00210020744CA6
:10BE8000A0477E4A02210020A0477D487D4B98476D
:10BE90007D4C7E4E7E48A0473378002B3DD000225B
:10BEA0007A4B1A707B4B1B78002B36D03F2302AAAB
:10BEB000944663441A78784B1888764B6849774DD6
:10BEC000A84700280AD13A483A4B98473F2302AA8C
:10BED0009446634419787248384B9847714B1B88D5
:10BEE000714A934206D964223F2302A98C466344D7
:10BEF0001A7012E01F3B9BB2F2229200934206D8C6
:10BF000000223F2302A98C4663441A7005E03222C6
:10BF10003F2302A98C4663441A70644B1A78644B21
:10BF20001B78DBB2002A34D0002B32D0374BDB78C1
:10BF3000432B06D13C4A1368802109068C46634492
:10BF40001360394B1B68181C059307AD0127EF7070
:10BF500009232B71073B6B710633AB701C33AB713C
:10BF6000153B2B805349544B9847304B9847FF2340
:10BF70001B06184300970423042229004F4DA847AD
:10BF8000002806D10598294B984781B228480B4BC9
:10BF900098474B4B1978012359401620494B984735
:10BFA00078E7C04655B2001055BC001049AF0010EC
:10BFB000002B01103518011028350110151701103C
:10BFC00029AE001009BB001055AE001089AE00105C
:10BFD000543501108DA5001010E000E0E58B001035
:10BFE000719600108C5C01109D960010004000407E
:10BFF000F99800103199001041830010046001107D
:10C0000091840010346001106460011050530110DD
:10C01000F05F0110718300107DBA0010E5B90010C7
:10C0200000E100E019840010E85F0110E9F9001058
:10C030007035011090350110EC5F011039DB0010F4
:10C04000C4600110C4350110E43501108C330110B7
:10C05000BDA400101C360110683301104C360110CD
:10C0600074600110399A0010A99A00107C360110F2
:10C07000D9CE001095BB00101C330110B43601104E
:10C0800099B90010BDB70010D1AC00105753011082
:10C090008F020000D1380110E45F0110CD9A00102A
:10C0A000A03601104C530110B20C00005A5301107D
:10C0B000565301100000204175FF001065DB001091
:10C0C000D05F01100D8A001070B5124D2C68002C45
:10C0D00014D02668E2602E6000250F4A2381136881
:10C0E0002560A080E180AB4201D1146011E01A68A4
:10C0F000002A01D0131CFAE71C600AE0C4B2002C2D
:10C1000007D1064CE26001222381054BA080E1802B
:10C110001A7070BD74530110705301105C530110FC
:10C120006C53011010B5084B000900011A6808187B
:10C13000814203D00A600A1C1031F9E71A6000221C
:10C14000024B1A6010BDC0467453011070530110A9
:10C1500038B51B4C031C2588081C211C9D4207D1A7
:10C16000A588854204D101235B422380A26009E0B7
:10C170004C889C420AD18C88844207D101235B42BF
:10C180004B808A600F4B9847012017E00E498B4285
:10C190000ED00E498B4207D00D4900208B420DD1A5
:10C1A000101C0C4B9847EFE7111C0B4B002202E0D0
:10C1B000111C0022094B98474342584138BDC046E4
:10C1C000C860011071DC0010130E0000150E000095
:10C1D000010E000099E0001059E2001031E3001058
:10C1E0000023F0B587B004920370049B0390013BD9
:10C1F0000D1C0593033302D80498AE4B9847059B5A
:10C20000AD4C033302D90023029315E000230293BF
:10C210002368002B13D1029BD02B00D1DAE20498C3
:10C22000A64B984702900228F2D13FE00498A34B16
:10C2300098470290022839D02368002BF6D0029B41
:10C24000D02B00D1C6E2029B033B5A1E9341029AB7
:10C250005B421A4023680292002B00D1C2E21A68A6
:10C26000DE682260DA880192954A9C881168136022
:10C270001960944B1B78012B0FD1934B924A9888ED
:10C28000D988D2681B89914FB8471022904B8E48AD
:10C290000021984700238B4A1370029B002B14D176
:10C2A0008C4B9C4209D08C4B9C4227D13A23039A59
:10C2B0001370002302931D1C07E0019BA34200D0D2
:10C2C0008AE23823039A13702E60039B1B783B2B62
:10C2D00001D1824B9847039B1B783B2B03D0059BD6
:10C2E000033304D983E2029B002B88D0F7E7029B3B
:10C2F000D02B00D17BE27A4B984778E2019BBB2B95
:10C3000025D1BB2C23D16B461B89AB80B3787278C7
:10C31000F0781B02134371793279A87071482B8031
:10C32000834206D8704A93420BD2704A934208D097
:10C3300009E06F48834206D10B021343AB803723D9
:10C3400002E0362300E00023039A1370BDE7694B37
:10C350009C4200D144E165D8674B9C4200D1D5E1B5
:10C360002FD8664B9C4200D1E0E113D8644B9C422D
:10C3700000D1A3E104D83826B44200D125E217E168
:10C38000604B9C4200D19FE1FE33FF339C4200D1C1
:10C39000D3E10DE15C4B9C4200D1A9E108D85B4B95
:10C3A0009C4200D196E15A4B9C4200D199E1FFE0BA
:10C3B000584B9C4200D1A2E1574B9C4200D1D4E1A2
:10C3C000F6E0564B9C4200D1C8E112D8544B9C4237
:10C3D00000D1D1E104D8534B9C4200D19BE1E7E06E
:10C3E000514B9C4200D1ADE1504B9C4200D1B0E199
:10C3F000DEE04F4B9C4200D1E0E009D8083B9C4274
:10C4000000D1D7E04B4B39269C4200D1DDE1CFE093
:10C41000D1231B019C4200D1D6E0474B9C4200D166
:10C42000D8E0C5E0454B9C4200D117E12ED8444BE3
:10C430009C4200D13DE112D8424B9C4200D1E8E041
:10C4400004D8033B9C4200D1D0E0B1E03E4B9C427B
:10C4500000D1D0E03D4B9C4200D1F9E0A8E03C4B3C
:10C460009C4200D1DBE008D83A4B9C4200D11BE152
:10C47000394B9C4200D1D8E09AE0384B9C4200D125
:10C48000D8E0374B9C4200D1DBE091E0354B9C4239
:10C4900000D1F7E076D8344B9C4200D1F8E069D85F
:10C4A000324B9C4200D1E0E0314B9C4200D1A9E0EC
:10C4B0007EE0C046A9DC00107053011045B50010A5
:10C4C000745301106C5301105C530110C9C000106B
:10C4D00005170110FFFF0000FEFF0000A9B70010C4
:10C4E000ABDC00101E2000001D200000030C00002B
:10C4F0001F2000001C0D00000C0C0000020C0000AE
:10C50000020A0000030A0000060C0000040C0000F0
:10C51000050C0000070C0000090C0000170C0000BF
:10C52000120C00000D0C0000130C0000150C000094
:10C53000080D0000010D0000150D00001B0E00008D
:10C540000F0E0000030E0000060E00000A0E000091
:10C55000150E0000110E0000130E0000170E000053
:10C56000190E0000270E0000210E00001C0E000016
:10C570001D0E00009F4B9C427ED09F4B9C4200D1E1
:10C580008CE015E09D4B9C4200D10AE108D89C4B01
:10C590009C4200D1F7E09B4B9C4200D1FAE007E0BF
:10C5A000994B9C4200D103E1984B9C4200D106E19B
:10C5B00000260AE1301C291C954B14E0301C291C74
:10C5C000944B9847042600E1301C291C924B984755
:10C5D0000126FAE0301C291C904B98470F26F4E006
:10C5E000301C291C8E4B9847061CEEE00198311C2C
:10C5F0002A1C8C4B17E0311C01982A1C8A4B984747
:10C600001126E2E0311C01982A1C884B984712261B
:10C61000DBE0301C291C864B98470626D5E0311CF0
:10C620002A1C0198834B9847DEE70198311C2A1C8D
:10C63000814BF8E7311C01982A1C804B98470D2646
:10C64000C3E0311C01982A1C7D4B98470E26BCE0A4
:10C650000198311C2A1C7B4B984784E0311C0198BF
:10C660002A1C794B98470B26AFE0311C01982A1CF5
:10C67000764B98471026A8E0301C291C744B98472D
:10C680002826A2E0301C291C724B984729269CE0E2
:10C69000301C291C704B9847272696E0301C291C1B
:10C6A0006E4B98472A2690E00198311C2A1C6C4B4F
:10C6B000B9E70198311C2A1C6A4BB4E7301C291CCD
:10C6C000694B98472B2680E0301C291C674B984704
:10C6D0002C267AE0311C01982A1C654B98471326BA
:10C6E00073E0311C01982A1C624B984714266CE0B9
:10C6F000311C01982A1C604B9847152665E0311CB7
:10C7000001982A1C5D4B984716265EE00198311C63
:10C710002A1C5B4B87E7311C01982A1C584B984711
:10C72000A988061C574B288898474EE0311C019871
:10C730002A1C554B9847232647E00198311C2A1C98
:10C74000524B70E7019B301C1F0A2F80291C504B55
:10C7500049E70198311C2A1C4E4B64E7301C291C08
:10C76000019A4D4B98473B262FE0311C01982A1C1B
:10C770004A4B9847182628E0311C01982A1C484B40
:10C780009847202621E0311C01982A1C454B9847E8
:10C7900033261AE0311C01982A1C434B9847302657
:10C7A00013E0311C01982A1C404B984734260CE0BA
:10C7B000311C01982A1C3E4B9847352605E0311C58
:10C7C00001982A1C3B4B98473226039B1E7000237E
:10C7D00002937AE5D023FBE7019B029EBB2B00D09E
:10C7E000E6E6F2E7029B002B00D06EE5E0E6029859
:10C7F00007B0F0BD220E0000250E0000051B000052
:10C80000011B0000031B0000061B0000081B0000AA
:10C8100009EC0010EDEB001089EE001079EF00102C
:10C8200085F0001005DF001001E800107DE8001021
:10C83000BDE1001059E2001031E30010B9E500102D
:10C8400059E600108DE70010B5E70010CBE70010A7
:10C8500095E80010C3E80010D9E8001003E90010C3
:10C8600031E700105BE7001045D8001071D80010C8
:10C87000A5F20010E1F2001029F300106DF3001092
:10C88000A1F3001065F200106DF40010F5F3001034
:10C8900029D7001095D7001059D700107DF400104B
:10C8A000BDF400107DF8001087F800108DF800101E
:10C8B00093F800109FF80010F7B50E4900240B689C
:10C8C0000F1C1E1C0C4A15680192002B0ED09A8872
:10C8D0001968824207D1002C01D0216000E00E1CB3
:10C8E0001D601D1C231C1C1C0B1CEEE7019B3E60E5
:10C8F0001D60F7BD7053011074530110F7B5124A53
:10C900000090136811481F1C00218446046801929E
:10C91000002B14D0D888009A1D68060A96420BD1C5
:10C92000FD2606400C2E07D1002901D00D6000E045
:10C930002F1C1C601C1C0B1C191C2B1CE8E7019BEA
:10C940001F6063461C60F7BD7053011074530110E3
:10C9500030B5CF23002810D04A1E1F2A0DD8084A10
:10C96000131CAA33198000231C1CC55CAC34013392
:10C970001555DCB28C42F7D30023181C30BDC046DD
:10C980006661011010B5041CCF20002C06D0044BAA
:10C99000CE38211C9847034B1B79237010BDC0462D
:10C9A0009DEA001066610110F0B5067989B0CF25C7
:10C9B000032E38D8037811350F2B34D88023878C79
:10C9C000113D9B009F422ED8C57F837FAD015B0147
:10C9D0001D43C37E1D43437F1B011D43037F9B00FB
:10C9E0001D43124BEDB21E710379023B012B01D89E
:10C9F00002230371041C231C0B33618807932379E2
:10CA0000007800930195258C621D0295658C079B2B
:10CA100003950497064DA8472671051C211C034861
:10CA20002622044B9847281C09B0F0BD666101100E
:10CA300095E90010F3160110F0B587B003AF544923
:10CA40000B22544B041C381C98470522524B40269D
:10CA50001A800023514A1360514A1370514A1370CF
:10CA6000514B9847514B9847514B9847514B9847DA
:10CA7000002C00D189E0A368002B00D185E0236958
:10CA8000002B00D181E02068002802D16368002BD0
:10CA90007BD1494B61689847484B9847012801D999
:10CAA000E22672E04648474B98470028F8D1201C00
:10CAB000454B9847E068A168444B98476B46012274
:10CAC000DC1C201C01A95242414B9847002802D18E
:10CAD0002378392BF2D13F4B9847061E55D1031CC2
:10CAE00001213D4A49429A1812335181902BF7D1C6
:10CAF0003A4C813B23703A4B3A4A638000232371BE
:10CB00000133581E19010143023311700132212BE8
:10CB1000F7D1E033FF33A384231C002573331D704A
:10CB2000231C72331D70231C76331D70231CCC33E1
:10CB30001D80221CA023D0325B001380221CCE3229
:10CB40001380231CD2331D80FA22231C5200D433BD
:10CB50001A80231CD6331D70201C234BE5762577C5
:10CB60006577A577E577258465849847231C072298
:10CB700074331A70231C0432AA331A802B1C7A5D7A
:10CB8000AC330135E2540B2DF8D1301C07B0F0BDA9
:10CB9000DC360110F3160110D4600110205401108E
:10CBA00080530110D2380110CDF4001025CF0010B1
:10CBB00085D5001039D80010C1D5001055B200102D
:10CBC00081DB001099B4001029DC001025C1001091
:10CBD000E1C1001025E90010D66001106661011066
:10CBE000983A000071610110A9C9001038B5451CC0
:10CBF000031CCF20002D18D01A78032A15D8012A3B
:10CC000002D15A78002A10D01C1C291C0622074B7E
:10CC100007489847237807480371074B98472378BC
:10CC2000002B02D1281C054B984738BDF316011084
:10CC30006B61011066610110A9C90010ADDC001024
:10CC4000F8B584460F1C161C1C1C002802D1E220DB
:10CC5000002A2BD0CF201F2F28D81F2C26D8634680
:10CC6000002B0ED01248134D002F04D1391C1F2267
:10CC7000114B984703E061463A1C104B98477235B8
:10CC80002F70301E12D00B4D0D48002C07D1211CE7
:10CC90001F22094B733598472C70201C06E0311C6D
:10CCA000221C064B9847002073352C70F8BDC046F7
:10CCB0009A6101106661011005170110F316011049
:10CCC000B9610110F0B591B01F1C16AB1D8817ABF0
:10CCD0001B880D910E9318AB1B78041C0F93424BCD
:10CCE000161C73331B78CF200C93012C03D10E9BA1
:10CCF000002B76D124E0042C73D88023DB019D42E5
:10CD00006FD8002C02D11F2D6BD903E09F2D01D8C5
:10CD1000012C66D1002F09D00D9BCF20013B012BA8
:10CD20005FD9012C02D1002D00D120352F4B98471F
:10CD3000011C002E43D03378601E002B09D13BE04C
:10CD40008023DB019D424CD8002E4AD0002FE3D136
:10CD50002BE0012303283AD90D20721C02E00E209B
:10CD6000321EFAD1204C743426780724002E00D0CD
:10CD7000341C00920D9A039404921B4A019502956B
:10CD80000597723212780E9C0692194A07920C9AF5
:10CD90000892184A09926422624392B20A920F9A48
:10CDA000154C0B92154AA0471BE0002DBED10F4B2E
:10CDB00098472025011CBEE70328CDD806E0601E59
:10CDC000032803D9331C0D20321CCBE7002302F0CB
:10CDD0006BFDC60604020F20C2E700220C920C2055
:10CDE000BEE711B0F0BDC0466661011071EE0010E3
:10CDF0009A610110B961011051ED0010983A0000DC
:10CE000010B5054B9847041E03D1D120034B0001F8
:10CE10009847201C10BDC0467DEB0010B9C800101B
:10CE200038B5041C044B081C211C9847051C034BF7
:10CE3000201C9847281C38BD79E10010FDC800105F
:10CE4000F0B5051C87B0CF20002923D04A88124CAA
:10CE5000931F9BB2A3421DD80E88B31F9BB2A3425F
:10CE600018D8F4248B88FF34A34213D8CF883C1CF5
:10CE70000A3CA4B20594094CA446059C644509D813
:10CE80000C1C00970989281C01916189044C0291AE
:10CE9000311CA04707B0F0BD7A0C0000760C0000F2
:10CEA00069E6001010B5014CA04710BDE5E6001082
:10CEB00010B5CF2300280AD0002908D0002A06D0B8
:10CEC0000C78022C03D1034B013198470023181C26
:10CED00010BDC04611EF00101FB51F2318400023DE
:10CEE0000390009303A904222033024C0248A04778
:10CEF00004B010BD29DD00104C080240CF230228E9
:10CF000001D8024B1B5C181C7047C046E736011065
:10CF1000831EDBB203200E2B01D8014AD05C704780
:10CF2000EA3601100022014B1A8070477853011035
:10CF300070B5051C00240C4B19680C4B1E688C4204
:10CF400010DC0C206318DA0FD318021C5B105A4354
:10CF5000B0180288AA4201D2591EF0E7AA4202D9AB
:10CF60005C1CECE7002070BD8C5301108453011051
:10CF700030B50324051C01232540A54209D0231CFC
:10CF80002419204205D1023B184202D14B1E99417F
:10CF90008BB230210140302907D0410601D48106EF
:10CFA00001D5074809E0C10601D5064805E0002A79
:10CFB00001D00422134380208001184330BDC046B5
:10CFC0000C2000000420000030B50023840703D5A6
:10CFD0000133194200D10233040708D5CC0601D52C
:10CFE000042400E00C2423438024A401234384066A
:10CFF00006D50624214201D10A3400E0302423431F
:10D00000C40606D50624214201D13A3400E0C024EA
:10D01000234380246400204200D02343C40702D568
:10D020008024A40023430424204206D0CD0600D44B
:10D030000C242343802424012343440601D5084CB7
:10D040002343000607D50420C90600D40C2003435F
:10D050008420800103439003034398B230BDC0464F
:10D060000410000007B56A460B7813704B785370B4
:10D070004B8893701B0AD3700B791371CB880721EF
:10D0800053711B0A9371014B98470EBD5DF600105A
:10D09000F7B5294C1D1C23680190D326002B48D0DE
:10D0A0001E1C0C3E2660002905D0244FBC4660465D
:10D0B0003F68BF180760214807688446BE4232D9DE
:10D0C000684680880C3B18802368002909D0002A14
:10D0D00007D0604600689A80801A9860184B98477D
:10D0E00002E000219A809960002322689370033344
:10D0F0002B40032B01D06B0704D5012122689378C4
:10D100000B43937030232B40302B01D06B0604D59A
:10D110000221226893780B4393700A4A0026136811
:10D120000133136005E023601126002901D0BA1AEB
:10D130000260301CFEBDC0468453011088530110AC
:10D14000F31601108C530110F8B5051CCF20002AEE
:10D150001CD0141C03221E1C0A400B1C033A514213
:10D1600051415A07D20F0A43D203094F281C002A03
:10D1700003D0211C321CB84708E0111CB847002816
:10D1800004D1281C311C221C024B9847F8BDC04614
:10D1900091D000105DF6001037B5094B051C081C36
:10D1A0000C1C9847002809D08268002A06D0838882
:10D1B000291C0092201C0022024CA0473EBDC04604
:10D1C00031CF0010F5F00010F0B58BB0069310AB26
:10D1D000029204CB051C1B880591039312AB1B78AC
:10D1E000CF200493002D00D1CAE1002900D1C7E16E
:10D1F000002A00D1C4E1039B002B00D1C0E1C94B40
:10D2000004301E68002E00D1BAE10024C64B3480E1
:10D210001B88B71D211C10227380381CC34B9847F4
:10D220002878C34B9847691C021CC24B381C98478E
:10D2300004222B78029D1B011343049A74719201FE
:10D24000134333711623069A12355343029A12334D
:10D25000D718BD420FD0B84B298800930E2306AAD9
:10D260009B180193B54C301C01220223A0471635B0
:10D27000041EEED083E1109F002314373D1C02935F
:10D28000029B039A934200DBBFE0AD4B06AA0093DA
:10D290000E239B180193A94C301C04210122022368
:10D2A000A047041E00D06AE12B1C123B2C7B1B788C
:10D2B000211C1A1C04932888A24B9847032323405F
:10D2C000033B594259410123A4081C400C436B897C
:10D2D000E4031C430790964B049898472A1C113A84
:10D2E0000092033A031C0192211C301C934C079AB4
:10D2F000A047041E00D042E1C0222B8852001342F6
:10D3000004D1AB8A0493002B16D13AE00122D9094B
:10D310001140DB0501D5022319438B4B06AA00936C
:10D320000E239B180193854C0902301C0122022315
:10D33000A047041EE5D022E180232A882C7F5B00D1
:10D340001A40201C0121002A00D00A1C7F4B98475C
:10D3500003222240033A514251417D4B0A1C009363
:10D360002B1C6407E40F2243D2031043203382B204
:10D370000193724C301C04990223A047041E00D074
:10D38000FDE001212B880B4211D0A87F6F4B0022BA
:10D390009847704B021C00932B1C24330193674C5D
:10D3A000301C6D490223A047041E00D0E7E0302363
:10D3B0002A881A4212D00121687F0A1C634B9847C1
:10D3C000664B021C00932B1C223301935B4C301CD8
:10D3D00061490223A047041E00D0D0E0AB69002BB6
:10D3E0000ED05F4B06AA00930E239B180193534C5B
:10D3F000301C072101220223A047041E00D0BEE0FA
:10D40000029B3C35013302933AE7301C554B984759
:10D41000041E00D0B3E03388059A13803688069B3B
:10D42000039AF618B3B202933C235343109A143371
:10D43000D3180493049B9F4200D1A0E0029B9D1C43
:10D440003B1CADB2143B1D8003933B89002B08D1DC
:10D45000C0233A885B001A4226D0029E0336B5B23A
:10D4600022E003213B7B194003394A424A415907D4
:10D47000C90F1143C9037A89002907D079680029A7
:10D4800000D13949281C394EB0470AE0281C374ED4
:10D49000B047002872D1039B398918887A68344BC9
:10D4A00098470028D4D069E0BB8A002B0AD0013508
:10D4B000ADB23D84397FFB8A281C3A692D4EB047B6
:10D4C00000285BD13B88DB070DD500220135ADB2CA
:10D4D00009A9BD84BB7F281C0A704A70234E023202
:10D4E000B04700284AD130233A881A420DD0002292
:10D4F0000135ADB209A97D847B7F281C0A704A7072
:10D500001A4E0232B047002838D1B969002906D036
:10D510000135ADB2281C184B984700282ED13C3756
:10D52000029587E794530110D4600110051701108C
:10D53000FDCE0010F316011003370110EDF50010B9
:10D5400005370110C9CF00100137011071CF00104D
:10D55000FD360110FF36011002800000F93601107F
:10D56000FB360110E1F400108053011091D000103F
:10D570005DF6001049D1001065D00010041C201C7D
:10D580000BB0F0BD0023074A1370074A1360074A27
:10D590001360074A1360074A1360074A1360074A7B
:10D5A0001360704780530110905301108C53011089
:10D5B0007C530110885301108453011094530110BF
:10D5C0000A4B0B4A18604B0813600A4AC3181360D1
:10D5D000094A411813600323002203319943074B82
:10D5E00004391960064B1A607047C0469453011005
:10D5F000905301107C530110885301108453011083
:10D600008C53011030B585B008AC20CC248800952F
:10D61000019401240294024CA04705B030BDC046DD
:10D62000C9D1001070B50B4B061C0C1C151C98477B
:10D63000002808D08068002805D0211C2A1C064B31
:10D640009847002004E0301C291C221C034B9847FB
:10D6500070BDC04631CF0010F31601105DF600100A
:10D6600070B50C4B061C0C1C151C984700280BD0E1
:10D670008368002B08D083882B8082888168064BC2
:10D68000201C9847002004E0301C291C221C034B5E
:10D69000984770BD31CF0010F3160110E9F6001065
:10D6A000F0B585B0041C0191002928D14388271CBE
:10D6B0000093181C164B98470837002809D080683B
:10D6C000002806D0A388E288C018391C114B98475F
:10D6D00015E002AB9E1D00230F4D33802968321CDC
:10D6E0000E4B009898472B68A088E2881818391CC0
:10D6F000084B9847608832882968094B98476088AA
:10D700002188019A074B9847002005B0F0BDC0461C
:10D7100031CF0010F3160110D438011061D600107B
:10D7200025D6001061F1001038B50C1C074B984746
:10D730006588074B281C984783782620DB0704D48C
:10D740002088291C034B98473B2038BDA5F00010CA
:10D7500031CF001099D1001038B50D1C0A4B141CA4
:10D7600098472D88094B281C9847220A031C084C0F
:10D7700091B2002803D082880023281C01E0281CD5
:10D780000122A0473B2038BDE9F0001031CF001046
:10D79000A5F1001010B5141C074B9847074B608883
:10D7A0009847022381782220194003D1201C044B82
:10D7B00098471F2010BDC046B1F0001031CF0010B7
:10D7C000A1D60010F0B5174D174C2A68A544D223F6
:10D7D000042A22D8061C154B081C0C1C984700284C
:10D7E00008D08368002B05D08288211C009212206B
:10D7F000321C0CE00E276F44391C04AA0C4B201C71
:10D8000098471220211C321C3B88009304AB094C22
:10D81000A0472B6801332B600023181C85239B0035
:10D820009D44F0BD20540110ECFDFFFF31CF0010EE
:10D83000E9F60010EDF100100A22014B1A70704752
:10D84000D238011010B502780A70837844781B0230
:10D8500023434B800379C0781B0203438B80002A4B
:10D8600003D1024A13780133137010BDD23801106E
:10D8700008B5031C42780078120202430A80DA7865
:10D880009878120202434A805A79187912020243A8
:10D890008A80881D991D014B984708BDF316011019
:10D8A000F0B50C1C1F218BB0079302ABC9180F23D6
:10D8B0000B70404B051C161C9847071C0120072FB6
:10D8C00075D8002C13D112235F433B4BFB5C834282
:10D8D00001D0CF206BE0049500940194029403944E
:10D8E000201C211C221C231C344DA8475EE02279F9
:10D8F000062AEED96379102BEBD89A42E9D8237A1D
:10D90000042BE6D8A379072BE3D8E379072BE0D8DB
:10D91000A378002B06D0002EDBD02948311C1C2216
:10D92000284B9847079B002B05D02748191C9A3095
:10D930001022244B98476378A2789B00134312224D
:10D9400057431D4ADBB2BA5C002A16D1A0794207C0
:10D9500002D5079A002ABCD0C20701D5002EB8D044
:10D9600066792178E27800960190E0790290207A39
:10D97000164C0390281CA04718E0012AA9D1E07991
:10D98000420702D5079A002AA3D0C20701D5002E6C
:10D990009FD066792178E2780096A6790290019668
:10D9A000207A04950390054C0120A04700200BB07D
:10D9B000F0BDC046A1DE0010D660011011E40010D9
:10D9C000E4610110F316011066610110F1E100102D
:10D9D000F0B585B0051C0C1C161C002168461022F1
:10D9E000184B98470121002E01D1311C6E46002CA6
:10D9F00016D10127231C701D013E02780138303AF0
:10DA00007A439B180A225743B042F6D16A466846C9
:10DA100013701A0A42701A0C1B0E8270C37009E050
:10DA2000CF20012C0CD100236846F25CC254013394
:10DA3000102BF9D104206A462B1C034CA047002070
:10DA400005B0F0BD051701108DE4001070B50C4B4A
:10DA50000E1C0021051C141C9847012307280DD813
:10DA600011335843074BC25CE023012A06D1B100B1
:10DA70000C43054BE1B2281C98470023181C70BDCD
:10DA8000A1DE0010D6600110DDE40010F7B5CF2351
:10DA900000292BD0052A29D801273D1C3324954085
:10DAA000254223D08C7E073C092C1FD8104B0C1C20
:10DAB0000021151C061C98473B1C072816D812236A
:10DAC00058430C4BC75CE023002F0FD1211C1C22B4
:10DAD000094B0A489847231CA17E228A12330091E1
